{
  "contractName": "MyContract",
  "abi": [
    {
      "anonymous": false,
      "inputs": [
        {
          "indexed": true,
          "internalType": "address",
          "name": "previousOwner",
          "type": "address"
        },
        {
          "indexed": true,
          "internalType": "address",
          "name": "newOwner",
          "type": "address"
        }
      ],
      "name": "OwnershipTransferred",
      "type": "event"
    },
    {
      "anonymous": false,
      "inputs": [
        {
          "indexed": false,
          "internalType": "string",
          "name": "contentId",
          "type": "string"
        },
        {
          "indexed": false,
          "internalType": "address",
          "name": "buyer",
          "type": "address"
        }
      ],
      "name": "PurchaseContent",
      "type": "event"
    },
    {
      "anonymous": false,
      "inputs": [
        {
          "indexed": false,
          "internalType": "string",
          "name": "membershipId",
          "type": "string"
        },
        {
          "indexed": false,
          "internalType": "address",
          "name": "buyer",
          "type": "address"
        }
      ],
      "name": "PurchaseMembership",
      "type": "event"
    },
    {
      "inputs": [
        {
          "internalType": "string",
          "name": "",
          "type": "string"
        }
      ],
      "name": "contents",
      "outputs": [
        {
          "internalType": "string",
          "name": "id",
          "type": "string"
        },
        {
          "internalType": "uint256",
          "name": "price",
          "type": "uint256"
        },
        {
          "internalType": "address payable",
          "name": "creator",
          "type": "address"
        }
      ],
      "stateMutability": "view",
      "type": "function"
    },
    {
      "inputs": [
        {
          "internalType": "string",
          "name": "",
          "type": "string"
        }
      ],
      "name": "memberships",
      "outputs": [
        {
          "internalType": "string",
          "name": "id",
          "type": "string"
        },
        {
          "internalType": "uint256",
          "name": "price",
          "type": "uint256"
        },
        {
          "internalType": "address payable",
          "name": "creator",
          "type": "address"
        }
      ],
      "stateMutability": "view",
      "type": "function"
    },
    {
      "inputs": [],
      "name": "owner",
      "outputs": [
        {
          "internalType": "address",
          "name": "",
          "type": "address"
        }
      ],
      "stateMutability": "view",
      "type": "function"
    },
    {
      "inputs": [],
      "name": "renounceOwnership",
      "outputs": [],
      "stateMutability": "nonpayable",
      "type": "function"
    },
    {
      "inputs": [
        {
          "internalType": "address",
          "name": "newOwner",
          "type": "address"
        }
      ],
      "name": "transferOwnership",
      "outputs": [],
      "stateMutability": "nonpayable",
      "type": "function"
    },
    {
      "inputs": [
        {
          "internalType": "string",
          "name": "_id",
          "type": "string"
        },
        {
          "internalType": "uint256",
          "name": "_price",
          "type": "uint256"
        }
      ],
      "name": "createContent",
      "outputs": [],
      "stateMutability": "nonpayable",
      "type": "function"
    },
    {
      "inputs": [
        {
          "internalType": "string",
          "name": "_id",
          "type": "string"
        },
        {
          "internalType": "uint256",
          "name": "_price",
          "type": "uint256"
        }
      ],
      "name": "createMembership",
      "outputs": [],
      "stateMutability": "nonpayable",
      "type": "function"
    },
    {
      "inputs": [
        {
          "internalType": "string",
          "name": "_id",
          "type": "string"
        }
      ],
      "name": "purchaseContent",
      "outputs": [],
      "stateMutability": "payable",
      "type": "function"
    },
    {
      "inputs": [
        {
          "internalType": "string",
          "name": "_id",
          "type": "string"
        }
      ],
      "name": "purchaseMembership",
      "outputs": [],
      "stateMutability": "payable",
      "type": "function"
    }
  ],
  "bytecode": "0x608060405234801561001057600080fd5b5061002d61002261003260201b60201c565b61003a60201b60201c565b6100fe565b600033905090565b60008060009054906101000a900473ffffffffffffffffffffffffffffffffffffffff169050816000806101000a81548173ffffffffffffffffffffffffffffffffffffffff021916908373ffffffffffffffffffffffffffffffffffffffff1602179055508173ffffffffffffffffffffffffffffffffffffffff168173ffffffffffffffffffffffffffffffffffffffff167f8be0079c531659141344cd1fd0a4f28419497f9722a3daafe3b4186f6b6457e060405160405180910390a35050565b6113468061010d6000396000f3fe6080604052600436106100855760003560e01c8063715018a611610059578063715018a6146101145780638da5cb5b1461012b578063a6acce3514610156578063c8d52f1e14610195578063f2fde38b146101d457610085565b8062b401861461008a57806327b697f0146100a65780634402070e146100cf57806353506a1c146100eb575b600080fd5b6100a4600480360381019061009f9190610cfa565b6101fd565b005b3480156100b257600080fd5b506100cd60048036038101906100c89190610d3b565b61041b565b005b6100e960048036038101906100e49190610cfa565b6104df565b005b3480156100f757600080fd5b50610112600480360381019061010d9190610d3b565b6106fd565b005b34801561012057600080fd5b506101296107c1565b005b34801561013757600080fd5b506101406107d5565b60405161014d9190610f23565b60405180910390f35b34801561016257600080fd5b5061017d60048036038101906101789190610cfa565b6107fe565b60405161018c93929190610f6e565b60405180910390f35b3480156101a157600080fd5b506101bc60048036038101906101b79190610cfa565b6108e6565b6040516101cb93929190610f6e565b60405180910390f35b3480156101e057600080fd5b506101fb60048036038101906101f69190610cd1565b6109ce565b005b600060028260405161020f9190610f0c565b9081526020016040518091039020604051806060016040529081600082018054610238906111e3565b80601f0160208091040260200160405190810160405280929190818152602001828054610264906111e3565b80156102b15780601f10610286576101008083540402835291602001916102b1565b820191906000526020600020905b81548152906001019060200180831161029457829003601f168201915b50505050508152602001600182015481526020016002820160009054906101000a900473ffffffffffffffffffffffffffffffffffffffff1673ffffffffffffffffffffffffffffffffffffffff1673ffffffffffffffffffffffffffffffffffffffff168152505090508060200151341015610363576040517f08c379a000000000000000000000000000000000000000000000000000000000815260040161035a90610fac565b60405180910390fd5b600061271060fa3461037591906110c5565b61037f9190611094565b90506000813461038f919061111f565b9050826040015173ffffffffffffffffffffffffffffffffffffffff166108fc829081150290604051600060405180830381858888f193505050501580156103db573d6000803e3d6000fd5b507f1243b4feb6b0c211363e85d2adc9cbd13c2feea09388080ceea4cd622457d8ab843360405161040d929190610f3e565b60405180910390a150505050565b60405180606001604052808381526020018281526020013373ffffffffffffffffffffffffffffffffffffffff1681525060018360405161045c9190610f0c565b90815260200160405180910390206000820151816000019080519060200190610486929190610b9c565b506020820151816001015560408201518160020160006101000a81548173ffffffffffffffffffffffffffffffffffffffff021916908373ffffffffffffffffffffffffffffffffffffffff1602179055509050505050565b60006001826040516104f19190610f0c565b908152602001604051809103902060405180606001604052908160008201805461051a906111e3565b80601f0160208091040260200160405190810160405280929190818152602001828054610546906111e3565b80156105935780601f1061056857610100808354040283529160200191610593565b820191906000526020600020905b81548152906001019060200180831161057657829003601f168201915b50505050508152602001600182015481526020016002820160009054906101000a900473ffffffffffffffffffffffffffffffffffffffff1673ffffffffffffffffffffffffffffffffffffffff1673ffffffffffffffffffffffffffffffffffffffff168152505090508060200151341015610645576040517f08c379a000000000000000000000000000000000000000000000000000000000815260040161063c90610fac565b60405180910390fd5b600061271060fa3461065791906110c5565b6106619190611094565b905060008134610671919061111f565b9050826040015173ffffffffffffffffffffffffffffffffffffffff166108fc829081150290604051600060405180830381858888f193505050501580156106bd573d6000803e3d6000fd5b507f790ef208dab554576fed861523a87372748cca9bb5e0789232ae667cf94debc384336040516106ef929190610f3e565b60405180910390a150505050565b60405180606001604052808381526020018281526020013373ffffffffffffffffffffffffffffffffffffffff1681525060028360405161073e9190610f0c565b90815260200160405180910390206000820151816000019080519060200190610768929190610b9c565b506020820151816001015560408201518160020160006101000a81548173ffffffffffffffffffffffffffffffffffffffff021916908373ffffffffffffffffffffffffffffffffffffffff1602179055509050505050565b6107c9610a52565b6107d36000610ad0565b565b60008060009054906101000a900473ffffffffffffffffffffffffffffffffffffffff16905090565b600181805160208101820180518482526020830160208501208183528095505050505050600091509050806000018054610837906111e3565b80601f0160208091040260200160405190810160405280929190818152602001828054610863906111e3565b80156108b05780601f10610885576101008083540402835291602001916108b0565b820191906000526020600020905b81548152906001019060200180831161089357829003601f168201915b5050505050908060010154908060020160009054906101000a900473ffffffffffffffffffffffffffffffffffffffff16905083565b60028180516020810182018051848252602083016020850120818352809550505050505060009150905080600001805461091f906111e3565b80601f016020809104026020016040519081016040528092919081815260200182805461094b906111e3565b80156109985780601f1061096d57610100808354040283529160200191610998565b820191906000526020600020905b81548152906001019060200180831161097b57829003601f168201915b5050505050908060010154908060020160009054906101000a900473ffffffffffffffffffffffffffffffffffffffff16905083565b6109d6610a52565b600073ffffffffffffffffffffffffffffffffffffffff168173ffffffffffffffffffffffffffffffffffffffff161415610a46576040517f08c379a0000000000000000000000000000000000000000000000000000000008152600401610a3d90610fcc565b60405180910390fd5b610a4f81610ad0565b50565b610a5a610b94565b73ffffffffffffffffffffffffffffffffffffffff16610a786107d5565b73ffffffffffffffffffffffffffffffffffffffff1614610ace576040517f08c379a0000000000000000000000000000000000000000000000000000000008152600401610ac590610fec565b60405180910390fd5b565b60008060009054906101000a900473ffffffffffffffffffffffffffffffffffffffff169050816000806101000a81548173ffffffffffffffffffffffffffffffffffffffff021916908373ffffffffffffffffffffffffffffffffffffffff1602179055508173ffffffffffffffffffffffffffffffffffffffff168173ffffffffffffffffffffffffffffffffffffffff167f8be0079c531659141344cd1fd0a4f28419497f9722a3daafe3b4186f6b6457e060405160405180910390a35050565b600033905090565b828054610ba8906111e3565b90600052602060002090601f016020900481019282610bca5760008555610c11565b82601f10610be357805160ff1916838001178555610c11565b82800160010185558215610c11579182015b82811115610c10578251825591602001919060010190610bf5565b5b509050610c1e9190610c22565b5090565b5b80821115610c3b576000816000905550600101610c23565b5090565b6000610c52610c4d8461103d565b61100c565b905082815260208101848484011115610c6a57600080fd5b610c758482856111a1565b509392505050565b600081359050610c8c816112e2565b92915050565b600082601f830112610ca357600080fd5b8135610cb3848260208601610c3f565b91505092915050565b600081359050610ccb816112f9565b92915050565b600060208284031215610ce357600080fd5b6000610cf184828501610c7d565b91505092915050565b600060208284031215610d0c57600080fd5b600082013567ffffffffffffffff811115610d2657600080fd5b610d3284828501610c92565b91505092915050565b60008060408385031215610d4e57600080fd5b600083013567ffffffffffffffff811115610d6857600080fd5b610d7485828601610c92565b9250506020610d8585828601610cbc565b9150509250929050565b610d9881611165565b82525050565b610da781611153565b82525050565b6000610db88261106d565b610dc28185611078565b9350610dd28185602086016111b0565b610ddb816112d1565b840191505092915050565b6000610df18261106d565b610dfb8185611089565b9350610e0b8185602086016111b0565b80840191505092915050565b6000610e24601a83611078565b91507f4e6f7420656e6f7567682045746865722070726f76696465642e0000000000006000830152602082019050919050565b6000610e64602683611078565b91507f4f776e61626c653a206e6577206f776e657220697320746865207a65726f206160008301527f64647265737300000000000000000000000000000000000000000000000000006020830152604082019050919050565b6000610eca602083611078565b91507f4f776e61626c653a2063616c6c6572206973206e6f7420746865206f776e65726000830152602082019050919050565b610f0681611197565b82525050565b6000610f188284610de6565b915081905092915050565b6000602082019050610f386000830184610d9e565b92915050565b60006040820190508181036000830152610f588185610dad565b9050610f676020830184610d9e565b9392505050565b60006060820190508181036000830152610f888186610dad565b9050610f976020830185610efd565b610fa46040830184610d8f565b949350505050565b60006020820190508181036000830152610fc581610e17565b9050919050565b60006020820190508181036000830152610fe581610e57565b9050919050565b6000602082019050818103600083015261100581610ebd565b9050919050565b6000604051905081810181811067ffffffffffffffff82111715611033576110326112a2565b5b8060405250919050565b600067ffffffffffffffff821115611058576110576112a2565b5b601f19601f8301169050602081019050919050565b600081519050919050565b600082825260208201905092915050565b600081905092915050565b600061109f82611197565b91506110aa83611197565b9250826110ba576110b9611244565b5b828204905092915050565b60006110d082611197565b91506110db83611197565b9250817fffffffffffffffffffffffffffffffffffffffffffffffffffffffffffffffff048311821515161561111457611113611215565b5b828202905092915050565b600061112a82611197565b915061113583611197565b92508282101561114857611147611215565b5b828203905092915050565b600061115e82611177565b9050919050565b600061117082611177565b9050919050565b600073ffffffffffffffffffffffffffffffffffffffff82169050919050565b6000819050919050565b82818337600083830152505050565b60005b838110156111ce5780820151818401526020810190506111b3565b838111156111dd576000848401525b50505050565b600060028204905060018216806111fb57607f821691505b6020821081141561120f5761120e611273565b5b50919050565b7f4e487b7100000000000000000000000000000000000000000000000000000000600052601160045260246000fd5b7f4e487b7100000000000000000000000000000000000000000000000000000000600052601260045260246000fd5b7f4e487b7100000000000000000000000000000000000000000000000000000000600052602260045260246000fd5b7f4e487b7100000000000000000000000000000000000000000000000000000000600052604160045260246000fd5b6000601f19601f8301169050919050565b6112eb81611153565b81146112f657600080fd5b50565b61130281611197565b811461130d57600080fd5b5056fea2646970667358221220ac24108acc862c9c6f1a34295c223ce9865eab6f9848abeb94543d70e7fbe85264736f6c63430008000033",
  "immutableReferences": {},
  "source": "pragma solidity ^0.8.0;\n\n// Importing Ownable contract from OpenZeppelin, which allows access control to certain functions for the contract owner\nimport \"@openzeppelin/contracts/access/Ownable.sol\";\n\n// Defining the main contract\ncontract MyContract is Ownable {\n\n    // Defining a struct for the Content type, which includes ID, price, and the creator's address\n    struct Content {\n        string id;\n        uint price;\n        address payable creator;\n    }\n\n    // Defining a struct for the Membership type, similar to Content\n    struct Membership {\n        string id;\n        uint price;\n        address payable creator;\n    }\n\n    // Creating mappings to keep track of all contents and memberships, linking string IDs to their respective structs\n    mapping(string => Content) public contents;\n    mapping(string => Membership) public memberships;\n    \n    // Setting a processing fee percentage (in basis points, so 250 represents 2.5%)\n    uint constant PROCESSING_FEE_PERCENT = 250; \n\n    // Events that will be emitted when a content or membership is purchased\n    event PurchaseContent(string contentId, address buyer);\n    event PurchaseMembership(string membershipId, address buyer);\n\n    // Function to create a new content entry. This can be called by anyone.\n    function createContent(string memory _id, uint _price) public {\n        contents[_id] = Content(_id, _price, payable(msg.sender));\n    }\n\n    // Similar to createContent, but for memberships\n    function createMembership(string memory _id, uint _price) public {\n        memberships[_id] = Membership(_id, _price, payable(msg.sender));\n    }\n\n    // Function to allow a user to purchase a content. This requires the sender to send enough ether to cover the price.\n    function purchaseContent(string memory _id) public payable {\n        Content memory content = contents[_id];\n        require(msg.value >= content.price, \"Not enough Ether provided.\");\n        \n        // Calculate the processing fee and the amount that goes to the creator\n        uint fee = (msg.value * PROCESSING_FEE_PERCENT) / 10000;\n        uint amountToCreator = msg.value - fee;\n        \n        // Transfer the payment to the creator\n        content.creator.transfer(amountToCreator);\n\n        // Emit the PurchaseContent event\n        emit PurchaseContent(_id, msg.sender);\n    }\n\n    // Similar to purchaseContent, but for memberships\n    function purchaseMembership(string memory _id) public payable {\n        Membership memory membership = memberships[_id];\n        require(msg.value >= membership.price, \"Not enough Ether provided.\");\n        \n        // Calculate the processing fee and the amount that goes to the creator\n        uint fee = (msg.value * PROCESSING_FEE_PERCENT) / 10000;\n        uint amountToCreator = msg.value - fee;\n\n        // Transfer the payment to the creator\n        membership.creator.transfer(amountToCreator);\n\n        // Emit the PurchaseMembership event\n        emit PurchaseMembership(_id, msg.sender);\n    }\n}\n",
  "sourcePath": "/Users/Yellaphan/Desktop/dev_projects/nodus_contracts/contracts/nodus.sol",
  "compiler": {
    "name": "solc",
    "version": "0.8.0+commit.c7dfd78e.Emscripten.clang"
  },
  "schemaVersion": "3.4.14",
  "updatedAt": "2023-06-14T14:19:42.970Z",
  "devdoc": {
    "kind": "dev",
    "methods": {
      "owner()": {
        "details": "Returns the address of the current owner."
      },
      "renounceOwnership()": {
        "details": "Leaves the contract without owner. It will not be possible to call `onlyOwner` functions. Can only be called by the current owner. NOTE: Renouncing ownership will leave the contract without an owner, thereby disabling any functionality that is only available to the owner."
      },
      "transferOwnership(address)": {
        "details": "Transfers ownership of the contract to a new account (`newOwner`). Can only be called by the current owner."
      }
    },
    "version": 1
  },
  "userdoc": {
    "kind": "user",
    "methods": {},
    "version": 1
  }
}