{
  "contractName": "NodusVault",
  "abi": [
    {
      "inputs": [
        {
          "internalType": "address",
          "name": "_usdcAddress",
          "type": "address"
        }
      ],
      "stateMutability": "nonpayable",
      "type": "constructor"
    },
    {
      "anonymous": false,
      "inputs": [
        {
          "indexed": true,
          "internalType": "address",
          "name": "previousOwner",
          "type": "address"
        },
        {
          "indexed": true,
          "internalType": "address",
          "name": "newOwner",
          "type": "address"
        }
      ],
      "name": "OwnershipTransferred",
      "type": "event"
    },
    {
      "inputs": [],
      "name": "owner",
      "outputs": [
        {
          "internalType": "address",
          "name": "",
          "type": "address"
        }
      ],
      "stateMutability": "view",
      "type": "function",
      "constant": true
    },
    {
      "inputs": [],
      "name": "renounceOwnership",
      "outputs": [],
      "stateMutability": "nonpayable",
      "type": "function"
    },
    {
      "inputs": [
        {
          "internalType": "address",
          "name": "newOwner",
          "type": "address"
        }
      ],
      "name": "transferOwnership",
      "outputs": [],
      "stateMutability": "nonpayable",
      "type": "function"
    },
    {
      "inputs": [],
      "name": "usdc",
      "outputs": [
        {
          "internalType": "contract IERC20",
          "name": "",
          "type": "address"
        }
      ],
      "stateMutability": "view",
      "type": "function",
      "constant": true
    },
    {
      "inputs": [
        {
          "internalType": "uint256",
          "name": "_amount",
          "type": "uint256"
        }
      ],
      "name": "withdraw",
      "outputs": [],
      "stateMutability": "nonpayable",
      "type": "function"
    }
  ],
  "bytecode": "0x608060405234801561001057600080fd5b5060405161098638038061098683398181016040528101906100329190610176565b61004e61004361009560201b60201c565b61009d60201b60201c565b80600160006101000a81548173ffffffffffffffffffffffffffffffffffffffff021916908373ffffffffffffffffffffffffffffffffffffffff160217905550506101e8565b600033905090565b60008060009054906101000a900473ffffffffffffffffffffffffffffffffffffffff169050816000806101000a81548173ffffffffffffffffffffffffffffffffffffffff021916908373ffffffffffffffffffffffffffffffffffffffff1602179055508173ffffffffffffffffffffffffffffffffffffffff168173ffffffffffffffffffffffffffffffffffffffff167f8be0079c531659141344cd1fd0a4f28419497f9722a3daafe3b4186f6b6457e060405160405180910390a35050565b600081519050610170816101d1565b92915050565b60006020828403121561018857600080fd5b600061019684828501610161565b91505092915050565b60006101aa826101b1565b9050919050565b600073ffffffffffffffffffffffffffffffffffffffff82169050919050565b6101da8161019f565b81146101e557600080fd5b50565b61078f806101f76000396000f3fe608060405234801561001057600080fd5b50600436106100575760003560e01c80632e1a7d4d1461005c5780633e413bee14610078578063715018a6146100965780638da5cb5b146100a0578063f2fde38b146100be575b600080fd5b6100766004803603810190610071919061049c565b6100da565b005b6100806101da565b60405161008d919061061c565b60405180910390f35b61009e610200565b005b6100a8610214565b6040516100b591906105d8565b60405180910390f35b6100d860048036038101906100d3919061044a565b61023d565b005b6100e26102c1565b600160009054906101000a900473ffffffffffffffffffffffffffffffffffffffff1673ffffffffffffffffffffffffffffffffffffffff1663a9059cbb610128610214565b836040518363ffffffff1660e01b81526004016101469291906105f3565b602060405180830381600087803b15801561016057600080fd5b505af1158015610174573d6000803e3d6000fd5b505050506040513d601f19601f820116820180604052508101906101989190610473565b6101d7576040517f08c379a00000000000000000000000000000000000000000000000000000000081526004016101ce90610677565b60405180910390fd5b50565b600160009054906101000a900473ffffffffffffffffffffffffffffffffffffffff1681565b6102086102c1565b610212600061033f565b565b60008060009054906101000a900473ffffffffffffffffffffffffffffffffffffffff16905090565b6102456102c1565b600073ffffffffffffffffffffffffffffffffffffffff168173ffffffffffffffffffffffffffffffffffffffff1614156102b5576040517f08c379a00000000000000000000000000000000000000000000000000000000081526004016102ac90610637565b60405180910390fd5b6102be8161033f565b50565b6102c9610403565b73ffffffffffffffffffffffffffffffffffffffff166102e7610214565b73ffffffffffffffffffffffffffffffffffffffff161461033d576040517f08c379a000000000000000000000000000000000000000000000000000000000815260040161033490610657565b60405180910390fd5b565b60008060009054906101000a900473ffffffffffffffffffffffffffffffffffffffff169050816000806101000a81548173ffffffffffffffffffffffffffffffffffffffff021916908373ffffffffffffffffffffffffffffffffffffffff1602179055508173ffffffffffffffffffffffffffffffffffffffff168173ffffffffffffffffffffffffffffffffffffffff167f8be0079c531659141344cd1fd0a4f28419497f9722a3daafe3b4186f6b6457e060405160405180910390a35050565b600033905090565b60008135905061041a81610714565b92915050565b60008151905061042f8161072b565b92915050565b60008135905061044481610742565b92915050565b60006020828403121561045c57600080fd5b600061046a8482850161040b565b91505092915050565b60006020828403121561048557600080fd5b600061049384828501610420565b91505092915050565b6000602082840312156104ae57600080fd5b60006104bc84828501610435565b91505092915050565b6104ce816106a8565b82525050565b6104dd816106f0565b82525050565b60006104f0602683610697565b91507f4f776e61626c653a206e6577206f776e657220697320746865207a65726f206160008301527f64647265737300000000000000000000000000000000000000000000000000006020830152604082019050919050565b6000610556602083610697565b91507f4f776e61626c653a2063616c6c6572206973206e6f7420746865206f776e65726000830152602082019050919050565b6000610596601183610697565b91507f5769746864726177616c206661696c65640000000000000000000000000000006000830152602082019050919050565b6105d2816106e6565b82525050565b60006020820190506105ed60008301846104c5565b92915050565b600060408201905061060860008301856104c5565b61061560208301846105c9565b9392505050565b600060208201905061063160008301846104d4565b92915050565b60006020820190508181036000830152610650816104e3565b9050919050565b6000602082019050818103600083015261067081610549565b9050919050565b6000602082019050818103600083015261069081610589565b9050919050565b600082825260208201905092915050565b60006106b3826106c6565b9050919050565b60008115159050919050565b600073ffffffffffffffffffffffffffffffffffffffff82169050919050565b6000819050919050565b60006106fb82610702565b9050919050565b600061070d826106c6565b9050919050565b61071d816106a8565b811461072857600080fd5b50565b610734816106ba565b811461073f57600080fd5b50565b61074b816106e6565b811461075657600080fd5b5056fea2646970667358221220ffcbc69d00eee7d95fdff4f66f15cd13dbc460270098ee5e74d81866ba1e8a3164736f6c63430008000033",
  "immutableReferences": {},
  "source": "// SPDX-License-Identifier: MIT\n\npragma solidity ^0.8.0;\n\nimport \"@openzeppelin/contracts/access/Ownable.sol\";\nimport \"@openzeppelin/contracts/token/ERC20/IERC20.sol\";\n\ncontract NodusVault is Ownable {\n    IERC20 public usdc;\n\n    constructor(address _usdcAddress) {\n        usdc = IERC20(_usdcAddress);\n    }\n\n    function withdraw(uint _amount) external onlyOwner {\n        require(usdc.transfer(owner(), _amount), \"Withdrawal failed\");\n    }\n}\n\ncontract Nodus is Ownable {\n    IERC20 public usdc;\n    NodusVault public vault;\n\n    struct Content {\n        string id;\n        uint price;\n        address payable creator;\n    }\n\n    struct Membership {\n        string id;\n        uint price;\n        address payable creator;\n    }\n\n    mapping(string => Content) public contents;\n    mapping(string => Membership) public memberships;\n\n    uint constant PROCESSING_FEE_PERCENT = 250; \n\n    event PurchaseContent(string contentId, address buyer);\n    event PurchaseMembership(string membershipId, address buyer);\n\n    constructor(address _usdcAddress, address _vaultAddress) {\n        usdc = IERC20(_usdcAddress);\n        vault = NodusVault(_vaultAddress);\n    }\n\n    function createContent(string memory _id, uint _price) public {\n        contents[_id] = Content(_id, _price, payable(msg.sender));\n    }\n\n    function createMembership(string memory _id, uint _price) public {\n        memberships[_id] = Membership(_id, _price, payable(msg.sender));\n    }\n\n    function purchaseContent(string memory _id) public {\n        Content memory content = contents[_id];\n        uint price = content.price;\n        require(usdc.transferFrom(msg.sender, address(this), price), \"Not enough USDC provided.\");\n\n        uint fee = (price * PROCESSING_FEE_PERCENT) / 10000;\n        uint amountToCreator = price - fee;\n\n        require(usdc.transfer(content.creator, amountToCreator), \"Transfer to creator failed.\");\n        require(usdc.transfer(address(vault), fee), \"Transfer to vault failed.\");\n\n        emit PurchaseContent(_id, msg.sender);\n    }\n\n    function purchaseMembership(string memory _id) public {\n        Membership memory membership = memberships[_id];\n        uint price = membership.price;\n        require(usdc.transferFrom(msg.sender, address(this), price), \"Not enough USDC provided.\");\n\n        uint fee = (price * PROCESSING_FEE_PERCENT) / 10000;\n        uint amountToCreator = price - fee;\n\n        require(usdc.transfer(membership.creator, amountToCreator), \"Transfer to creator failed.\");\n        require(usdc.transfer(address(vault), fee), \"Transfer to vault failed.\");\n\n        emit PurchaseMembership(_id, msg.sender);\n    }\n}\n",
  "sourcePath": "/Users/Yellaphan/Desktop/dev_projects/nodus_contracts/contracts/nodus.sol",
  "compiler": {
    "name": "solc",
    "version": "0.8.0+commit.c7dfd78e.Emscripten.clang"
  },
  "schemaVersion": "3.4.14",
  "updatedAt": "2023-06-14T22:48:49.222Z",
  "networkType": "ethereum",
  "devdoc": {
    "kind": "dev",
    "methods": {
      "owner()": {
        "details": "Returns the address of the current owner."
      },
      "renounceOwnership()": {
        "details": "Leaves the contract without owner. It will not be possible to call `onlyOwner` functions. Can only be called by the current owner. NOTE: Renouncing ownership will leave the contract without an owner, thereby disabling any functionality that is only available to the owner."
      },
      "transferOwnership(address)": {
        "details": "Transfers ownership of the contract to a new account (`newOwner`). Can only be called by the current owner."
      }
    },
    "version": 1
  },
  "userdoc": {
    "kind": "user",
    "methods": {},
    "version": 1
  }
}