{
  "contractName": "Nodus",
  "abi": [
    {
      "inputs": [
        {
          "internalType": "address",
          "name": "_usdcAddress",
          "type": "address"
        },
        {
          "internalType": "address",
          "name": "_vaultAddress",
          "type": "address"
        }
      ],
      "stateMutability": "nonpayable",
      "type": "constructor"
    },
    {
      "anonymous": false,
      "inputs": [
        {
          "indexed": false,
          "internalType": "string",
          "name": "contentId",
          "type": "string"
        },
        {
          "indexed": false,
          "internalType": "address",
          "name": "donor",
          "type": "address"
        },
        {
          "indexed": false,
          "internalType": "uint256",
          "name": "amount",
          "type": "uint256"
        }
      ],
      "name": "Donation",
      "type": "event"
    },
    {
      "anonymous": false,
      "inputs": [
        {
          "indexed": true,
          "internalType": "address",
          "name": "previousOwner",
          "type": "address"
        },
        {
          "indexed": true,
          "internalType": "address",
          "name": "newOwner",
          "type": "address"
        }
      ],
      "name": "OwnershipTransferred",
      "type": "event"
    },
    {
      "anonymous": false,
      "inputs": [
        {
          "indexed": false,
          "internalType": "string",
          "name": "contentId",
          "type": "string"
        },
        {
          "indexed": false,
          "internalType": "address",
          "name": "buyer",
          "type": "address"
        }
      ],
      "name": "PurchaseContent",
      "type": "event"
    },
    {
      "anonymous": false,
      "inputs": [
        {
          "indexed": false,
          "internalType": "string",
          "name": "membershipId",
          "type": "string"
        },
        {
          "indexed": false,
          "internalType": "address",
          "name": "buyer",
          "type": "address"
        }
      ],
      "name": "PurchaseMembership",
      "type": "event"
    },
    {
      "inputs": [
        {
          "internalType": "string",
          "name": "",
          "type": "string"
        }
      ],
      "name": "contents",
      "outputs": [
        {
          "internalType": "string",
          "name": "id",
          "type": "string"
        },
        {
          "internalType": "uint256",
          "name": "price",
          "type": "uint256"
        },
        {
          "internalType": "address payable",
          "name": "creator",
          "type": "address"
        }
      ],
      "stateMutability": "view",
      "type": "function",
      "constant": true
    },
    {
      "inputs": [
        {
          "internalType": "string",
          "name": "",
          "type": "string"
        }
      ],
      "name": "memberships",
      "outputs": [
        {
          "internalType": "string",
          "name": "id",
          "type": "string"
        },
        {
          "internalType": "uint256",
          "name": "price",
          "type": "uint256"
        },
        {
          "internalType": "address payable",
          "name": "creator",
          "type": "address"
        }
      ],
      "stateMutability": "view",
      "type": "function",
      "constant": true
    },
    {
      "inputs": [],
      "name": "owner",
      "outputs": [
        {
          "internalType": "address",
          "name": "",
          "type": "address"
        }
      ],
      "stateMutability": "view",
      "type": "function",
      "constant": true
    },
    {
      "inputs": [
        {
          "internalType": "address",
          "name": "",
          "type": "address"
        }
      ],
      "name": "registeredUsers",
      "outputs": [
        {
          "internalType": "bool",
          "name": "",
          "type": "bool"
        }
      ],
      "stateMutability": "view",
      "type": "function",
      "constant": true
    },
    {
      "inputs": [],
      "name": "renounceOwnership",
      "outputs": [],
      "stateMutability": "nonpayable",
      "type": "function"
    },
    {
      "inputs": [
        {
          "internalType": "address",
          "name": "newOwner",
          "type": "address"
        }
      ],
      "name": "transferOwnership",
      "outputs": [],
      "stateMutability": "nonpayable",
      "type": "function"
    },
    {
      "inputs": [],
      "name": "usdc",
      "outputs": [
        {
          "internalType": "contract IERC20",
          "name": "",
          "type": "address"
        }
      ],
      "stateMutability": "view",
      "type": "function",
      "constant": true
    },
    {
      "inputs": [],
      "name": "vault",
      "outputs": [
        {
          "internalType": "contract NodusVault",
          "name": "",
          "type": "address"
        }
      ],
      "stateMutability": "view",
      "type": "function",
      "constant": true
    },
    {
      "inputs": [
        {
          "internalType": "address",
          "name": "_user",
          "type": "address"
        }
      ],
      "name": "registerUser",
      "outputs": [],
      "stateMutability": "nonpayable",
      "type": "function"
    },
    {
      "inputs": [
        {
          "internalType": "string",
          "name": "_id",
          "type": "string"
        },
        {
          "internalType": "uint256",
          "name": "_price",
          "type": "uint256"
        }
      ],
      "name": "createContent",
      "outputs": [],
      "stateMutability": "nonpayable",
      "type": "function"
    },
    {
      "inputs": [
        {
          "internalType": "string",
          "name": "_id",
          "type": "string"
        },
        {
          "internalType": "uint256",
          "name": "_price",
          "type": "uint256"
        }
      ],
      "name": "createMembership",
      "outputs": [],
      "stateMutability": "nonpayable",
      "type": "function"
    },
    {
      "inputs": [
        {
          "internalType": "string",
          "name": "_id",
          "type": "string"
        },
        {
          "internalType": "uint256",
          "name": "_newPrice",
          "type": "uint256"
        }
      ],
      "name": "updateContentPrice",
      "outputs": [],
      "stateMutability": "nonpayable",
      "type": "function"
    },
    {
      "inputs": [
        {
          "internalType": "string",
          "name": "_id",
          "type": "string"
        },
        {
          "internalType": "uint256",
          "name": "_newPrice",
          "type": "uint256"
        }
      ],
      "name": "updateMembershipPrice",
      "outputs": [],
      "stateMutability": "nonpayable",
      "type": "function"
    },
    {
      "inputs": [
        {
          "internalType": "string",
          "name": "_id",
          "type": "string"
        }
      ],
      "name": "deleteContent",
      "outputs": [],
      "stateMutability": "nonpayable",
      "type": "function"
    },
    {
      "inputs": [
        {
          "internalType": "string",
          "name": "_id",
          "type": "string"
        }
      ],
      "name": "deleteMembership",
      "outputs": [],
      "stateMutability": "nonpayable",
      "type": "function"
    },
    {
      "inputs": [
        {
          "internalType": "string",
          "name": "_id",
          "type": "string"
        }
      ],
      "name": "purchaseContent",
      "outputs": [],
      "stateMutability": "nonpayable",
      "type": "function"
    },
    {
      "inputs": [
        {
          "internalType": "string",
          "name": "_id",
          "type": "string"
        }
      ],
      "name": "purchaseMembership",
      "outputs": [],
      "stateMutability": "nonpayable",
      "type": "function"
    },
    {
      "inputs": [
        {
          "internalType": "string",
          "name": "_id",
          "type": "string"
        },
        {
          "internalType": "uint256",
          "name": "_amount",
          "type": "uint256"
        }
      ],
      "name": "donateContent",
      "outputs": [],
      "stateMutability": "nonpayable",
      "type": "function"
    }
  ],
  "bytecode": "0x60806040523480156200001157600080fd5b50604051620031e1380380620031e18339818101604052810190620000379190620001c4565b620000576200004b620000e160201b60201c565b620000e960201b60201c565b81600160006101000a81548173ffffffffffffffffffffffffffffffffffffffff021916908373ffffffffffffffffffffffffffffffffffffffff16021790555080600260006101000a81548173ffffffffffffffffffffffffffffffffffffffff021916908373ffffffffffffffffffffffffffffffffffffffff160217905550505062000253565b600033905090565b60008060009054906101000a900473ffffffffffffffffffffffffffffffffffffffff169050816000806101000a81548173ffffffffffffffffffffffffffffffffffffffff021916908373ffffffffffffffffffffffffffffffffffffffff1602179055508173ffffffffffffffffffffffffffffffffffffffff168173ffffffffffffffffffffffffffffffffffffffff167f8be0079c531659141344cd1fd0a4f28419497f9722a3daafe3b4186f6b6457e060405160405180910390a35050565b600081519050620001be8162000239565b92915050565b60008060408385031215620001d857600080fd5b6000620001e885828601620001ad565b9250506020620001fb85828601620001ad565b9150509250929050565b6000620002128262000219565b9050919050565b600073ffffffffffffffffffffffffffffffffffffffff82169050919050565b620002448162000205565b81146200025057600080fd5b50565b612f7e80620002636000396000f3fe608060405234801561001057600080fd5b50600436106101155760003560e01c806353506a1c116100a2578063a6acce3511610071578063a6acce351461028c578063c177550e146102be578063c8d52f1e146102da578063f2fde38b1461030c578063fbfa77cf1461032857610115565b806353506a1c1461022c578063715018a61461024857806382432440146102525780638da5cb5b1461026e57610115565b8063243088aa116100e9578063243088aa1461019e57806327b697f0146101ba5780632db6077d146101d65780633e413bee146101f25780634402070e1461021057610115565b8062b401861461011a57806306424506146101365780630e50cee5146101525780632199d5cd14610182575b600080fd5b610134600480360381019061012f91906121d3565b610346565b005b610150600480360381019061014b9190612214565b6104f5565b005b61016c60048036038101906101679190612181565b610661565b60405161017991906128c6565b60405180910390f35b61019c60048036038101906101979190612181565b610681565b005b6101b860048036038101906101b39190612214565b6106e4565b005b6101d460048036038101906101cf9190612214565b610925565b005b6101f060048036038101906101eb91906121d3565b610b2c565b005b6101fa610cd1565b60405161020791906128e1565b60405180910390f35b61022a600480360381019061022591906121d3565b610cf7565b005b61024660048036038101906102419190612214565b610ea6565b005b6102506110ad565b005b61026c600480360381019061026791906121d3565b6110c1565b005b610276611266565b60405161028391906127f9565b60405180910390f35b6102a660048036038101906102a191906121d3565b61128f565b6040516102b593929190612985565b60405180910390f35b6102d860048036038101906102d39190612214565b611377565b005b6102f460048036038101906102ef91906121d3565b6114e3565b60405161030393929190612985565b60405180910390f35b61032660048036038101906103219190612181565b6115cb565b005b61033061164f565b60405161033d91906128fc565b60405180910390f35b60011515600560003373ffffffffffffffffffffffffffffffffffffffff1673ffffffffffffffffffffffffffffffffffffffff16815260200190815260200160002060009054906101000a900460ff161515146103d9576040517f08c379a00000000000000000000000000000000000000000000000000000000081526004016103d090612a43565b60405180910390fd5b6004816040516103e991906127e2565b908152602001604051809103902060010154600160009054906101000a900473ffffffffffffffffffffffffffffffffffffffff1673ffffffffffffffffffffffffffffffffffffffff1663dd62ed3e33306040518363ffffffff1660e01b815260040161045892919061283d565b60206040518083038186803b15801561047057600080fd5b505afa158015610484573d6000803e3d6000fd5b505050506040513d601f19601f820116820180604052508101906104a89190612268565b10156104e9576040517f08c379a00000000000000000000000000000000000000000000000000000000081526004016104e090612ae3565b60405180910390fd5b6104f281611675565b50565b60011515600560003373ffffffffffffffffffffffffffffffffffffffff1673ffffffffffffffffffffffffffffffffffffffff16815260200190815260200160002060009054906101000a900460ff16151514610588576040517f08c379a000000000000000000000000000000000000000000000000000000000815260040161057f90612a43565b60405180910390fd5b3373ffffffffffffffffffffffffffffffffffffffff166003836040516105af91906127e2565b908152602001604051809103902060020160009054906101000a900473ffffffffffffffffffffffffffffffffffffffff1673ffffffffffffffffffffffffffffffffffffffff1614610637576040517f08c379a000000000000000000000000000000000000000000000000000000000815260040161062e90612b03565b60405180910390fd5b8060038360405161064891906127e2565b9081526020016040518091039020600101819055505050565b60056020528060005260406000206000915054906101000a900460ff1681565b61068961171e565b6001600560008373ffffffffffffffffffffffffffffffffffffffff1673ffffffffffffffffffffffffffffffffffffffff16815260200190815260200160002060006101000a81548160ff02191690831515021790555050565b60011515600560003373ffffffffffffffffffffffffffffffffffffffff1673ffffffffffffffffffffffffffffffffffffffff16815260200190815260200160002060009054906101000a900460ff16151514610777576040517f08c379a000000000000000000000000000000000000000000000000000000000815260040161076e90612a43565b60405180910390fd5b80600160009054906101000a900473ffffffffffffffffffffffffffffffffffffffff1673ffffffffffffffffffffffffffffffffffffffff1663dd62ed3e33306040518363ffffffff1660e01b81526004016107d592919061283d565b60206040518083038186803b1580156107ed57600080fd5b505afa158015610801573d6000803e3d6000fd5b505050506040513d601f19601f820116820180604052508101906108259190612268565b1015610866576040517f08c379a000000000000000000000000000000000000000000000000000000000815260040161085d90612ae3565b60405180910390fd5b600073ffffffffffffffffffffffffffffffffffffffff1660038360405161088e91906127e2565b908152602001604051809103902060020160009054906101000a900473ffffffffffffffffffffffffffffffffffffffff1673ffffffffffffffffffffffffffffffffffffffff161415610917576040517f08c379a000000000000000000000000000000000000000000000000000000000815260040161090e90612ac3565b60405180910390fd5b610921828261179c565b5050565b60011515600560003373ffffffffffffffffffffffffffffffffffffffff1673ffffffffffffffffffffffffffffffffffffffff16815260200190815260200160002060009054906101000a900460ff161515146109b8576040517f08c379a00000000000000000000000000000000000000000000000000000000081526004016109af90612a43565b60405180910390fd5b600073ffffffffffffffffffffffffffffffffffffffff166003836040516109e091906127e2565b908152602001604051809103902060020160009054906101000a900473ffffffffffffffffffffffffffffffffffffffff1673ffffffffffffffffffffffffffffffffffffffff1614610a68576040517f08c379a0000000000000000000000000000000000000000000000000000000008152600401610a5f90612a83565b60405180910390fd5b60405180606001604052808381526020018281526020013373ffffffffffffffffffffffffffffffffffffffff16815250600383604051610aa991906127e2565b90815260200160405180910390206000820151816000019080519060200190610ad3929190611fe2565b506020820151816001015560408201518160020160006101000a81548173ffffffffffffffffffffffffffffffffffffffff021916908373ffffffffffffffffffffffffffffffffffffffff1602179055509050505050565b60011515600560003373ffffffffffffffffffffffffffffffffffffffff1673ffffffffffffffffffffffffffffffffffffffff16815260200190815260200160002060009054906101000a900460ff16151514610bbf576040517f08c379a0000000000000000000000000000000000000000000000000000000008152600401610bb690612a43565b60405180910390fd5b3373ffffffffffffffffffffffffffffffffffffffff16600382604051610be691906127e2565b908152602001604051809103902060020160009054906101000a900473ffffffffffffffffffffffffffffffffffffffff1673ffffffffffffffffffffffffffffffffffffffff1614610c6e576040517f08c379a0000000000000000000000000000000000000000000000000000000008152600401610c6590612a63565b60405180910390fd5b600381604051610c7e91906127e2565b908152602001604051809103902060008082016000610c9d9190612068565b60018201600090556002820160006101000a81549073ffffffffffffffffffffffffffffffffffffffff0219169055505050565b600160009054906101000a900473ffffffffffffffffffffffffffffffffffffffff1681565b60011515600560003373ffffffffffffffffffffffffffffffffffffffff1673ffffffffffffffffffffffffffffffffffffffff16815260200190815260200160002060009054906101000a900460ff16151514610d8a576040517f08c379a0000000000000000000000000000000000000000000000000000000008152600401610d8190612a43565b60405180910390fd5b600381604051610d9a91906127e2565b908152602001604051809103902060010154600160009054906101000a900473ffffffffffffffffffffffffffffffffffffffff1673ffffffffffffffffffffffffffffffffffffffff1663dd62ed3e33306040518363ffffffff1660e01b8152600401610e0992919061283d565b60206040518083038186803b158015610e2157600080fd5b505afa158015610e35573d6000803e3d6000fd5b505050506040513d601f19601f82011682018060405250810190610e599190612268565b1015610e9a576040517f08c379a0000000000000000000000000000000000000000000000000000000008152600401610e9190612ae3565b60405180910390fd5b610ea381611827565b50565b60011515600560003373ffffffffffffffffffffffffffffffffffffffff1673ffffffffffffffffffffffffffffffffffffffff16815260200190815260200160002060009054906101000a900460ff16151514610f39576040517f08c379a0000000000000000000000000000000000000000000000000000000008152600401610f3090612a43565b60405180910390fd5b600073ffffffffffffffffffffffffffffffffffffffff16600483604051610f6191906127e2565b908152602001604051809103902060020160009054906101000a900473ffffffffffffffffffffffffffffffffffffffff1673ffffffffffffffffffffffffffffffffffffffff1614610fe9576040517f08c379a0000000000000000000000000000000000000000000000000000000008152600401610fe0906129c3565b60405180910390fd5b60405180606001604052808381526020018281526020013373ffffffffffffffffffffffffffffffffffffffff1681525060048360405161102a91906127e2565b90815260200160405180910390206000820151816000019080519060200190611054929190611fe2565b506020820151816001015560408201518160020160006101000a81548173ffffffffffffffffffffffffffffffffffffffff021916908373ffffffffffffffffffffffffffffffffffffffff1602179055509050505050565b6110b561171e565b6110bf60006118d0565b565b60011515600560003373ffffffffffffffffffffffffffffffffffffffff1673ffffffffffffffffffffffffffffffffffffffff16815260200190815260200160002060009054906101000a900460ff16151514611154576040517f08c379a000000000000000000000000000000000000000000000000000000000815260040161114b90612a43565b60405180910390fd5b3373ffffffffffffffffffffffffffffffffffffffff1660048260405161117b91906127e2565b908152602001604051809103902060020160009054906101000a900473ffffffffffffffffffffffffffffffffffffffff1673ffffffffffffffffffffffffffffffffffffffff1614611203576040517f08c379a00000000000000000000000000000000000000000000000000000000081526004016111fa906129e3565b60405180910390fd5b60048160405161121391906127e2565b9081526020016040518091039020600080820160006112329190612068565b60018201600090556002820160006101000a81549073ffffffffffffffffffffffffffffffffffffffff0219169055505050565b60008060009054906101000a900473ffffffffffffffffffffffffffffffffffffffff16905090565b6003818051602081018201805184825260208301602085012081835280955050505050506000915090508060000180546112c890612e04565b80601f01602080910402602001604051908101604052809291908181526020018280546112f490612e04565b80156113415780601f1061131657610100808354040283529160200191611341565b820191906000526020600020905b81548152906001019060200180831161132457829003601f168201915b5050505050908060010154908060020160009054906101000a900473ffffffffffffffffffffffffffffffffffffffff16905083565b60011515600560003373ffffffffffffffffffffffffffffffffffffffff1673ffffffffffffffffffffffffffffffffffffffff16815260200190815260200160002060009054906101000a900460ff1615151461140a576040517f08c379a000000000000000000000000000000000000000000000000000000000815260040161140190612a43565b60405180910390fd5b3373ffffffffffffffffffffffffffffffffffffffff1660048360405161143191906127e2565b908152602001604051809103902060020160009054906101000a900473ffffffffffffffffffffffffffffffffffffffff1673ffffffffffffffffffffffffffffffffffffffff16146114b9576040517f08c379a00000000000000000000000000000000000000000000000000000000081526004016114b090612b83565b60405180910390fd5b806004836040516114ca91906127e2565b9081526020016040518091039020600101819055505050565b60048180516020810182018051848252602083016020850120818352809550505050505060009150905080600001805461151c90612e04565b80601f016020809104026020016040519081016040528092919081815260200182805461154890612e04565b80156115955780601f1061156a57610100808354040283529160200191611595565b820191906000526020600020905b81548152906001019060200180831161157857829003601f168201915b5050505050908060010154908060020160009054906101000a900473ffffffffffffffffffffffffffffffffffffffff16905083565b6115d361171e565b600073ffffffffffffffffffffffffffffffffffffffff168173ffffffffffffffffffffffffffffffffffffffff161415611643576040517f08c379a000000000000000000000000000000000000000000000000000000000815260040161163a90612a03565b60405180910390fd5b61164c816118d0565b50565b600260009054906101000a900473ffffffffffffffffffffffffffffffffffffffff1681565b6116e28160048360405161168991906127e2565b908152602001604051809103902060020160009054906101000a900473ffffffffffffffffffffffffffffffffffffffff166004846040516116cb91906127e2565b908152602001604051809103902060010154611994565b7f1243b4feb6b0c211363e85d2adc9cbd13c2feea09388080ceea4cd622457d8ab8133604051611713929190612917565b60405180910390a150565b611726611cb7565b73ffffffffffffffffffffffffffffffffffffffff16611744611266565b73ffffffffffffffffffffffffffffffffffffffff161461179a576040517f08c379a000000000000000000000000000000000000000000000000000000000815260040161179190612b23565b60405180910390fd5b565b6117e8826003846040516117b091906127e2565b908152602001604051809103902060020160009054906101000a900473ffffffffffffffffffffffffffffffffffffffff1683611cbf565b7f58310a1975b3b3a3edec07ba7ea6a978c24cad24a410096ff038368fe1670c7e82338360405161181b93929190612947565b60405180910390a15050565b6118948160038360405161183b91906127e2565b908152602001604051809103902060020160009054906101000a900473ffffffffffffffffffffffffffffffffffffffff1660038460405161187d91906127e2565b908152602001604051809103902060010154611994565b7f790ef208dab554576fed861523a87372748cca9bb5e0789232ae667cf94debc381336040516118c5929190612917565b60405180910390a150565b60008060009054906101000a900473ffffffffffffffffffffffffffffffffffffffff169050816000806101000a81548173ffffffffffffffffffffffffffffffffffffffff021916908373ffffffffffffffffffffffffffffffffffffffff1602179055508173ffffffffffffffffffffffffffffffffffffffff168173ffffffffffffffffffffffffffffffffffffffff167f8be0079c531659141344cd1fd0a4f28419497f9722a3daafe3b4186f6b6457e060405160405180910390a35050565b600160009054906101000a900473ffffffffffffffffffffffffffffffffffffffff1673ffffffffffffffffffffffffffffffffffffffff166323b872dd3330846040518463ffffffff1660e01b81526004016119f393929190612866565b602060405180830381600087803b158015611a0d57600080fd5b505af1158015611a21573d6000803e3d6000fd5b505050506040513d601f19601f82011682018060405250810190611a4591906121aa565b611a84576040517f08c379a0000000000000000000000000000000000000000000000000000000008152600401611a7b90612b43565b60405180910390fd5b600061271060fa83611a969190612c5c565b611aa09190612c2b565b905060008183611ab09190612cb6565b9050600160009054906101000a900473ffffffffffffffffffffffffffffffffffffffff1673ffffffffffffffffffffffffffffffffffffffff1663a9059cbb85836040518363ffffffff1660e01b8152600401611b0f929190612814565b602060405180830381600087803b158015611b2957600080fd5b505af1158015611b3d573d6000803e3d6000fd5b505050506040513d601f19601f82011682018060405250810190611b6191906121aa565b611ba0576040517f08c379a0000000000000000000000000000000000000000000000000000000008152600401611b9790612aa3565b60405180910390fd5b600160009054906101000a900473ffffffffffffffffffffffffffffffffffffffff1673ffffffffffffffffffffffffffffffffffffffff1663a9059cbb600260009054906101000a900473ffffffffffffffffffffffffffffffffffffffff16846040518363ffffffff1660e01b8152600401611c1f92919061289d565b602060405180830381600087803b158015611c3957600080fd5b505af1158015611c4d573d6000803e3d6000fd5b505050506040513d601f19601f82011682018060405250810190611c7191906121aa565b611cb0576040517f08c379a0000000000000000000000000000000000000000000000000000000008152600401611ca790612b63565b60405180910390fd5b5050505050565b600033905090565b600160009054906101000a900473ffffffffffffffffffffffffffffffffffffffff1673ffffffffffffffffffffffffffffffffffffffff166323b872dd3330846040518463ffffffff1660e01b8152600401611d1e93929190612866565b602060405180830381600087803b158015611d3857600080fd5b505af1158015611d4c573d6000803e3d6000fd5b505050506040513d601f19601f82011682018060405250810190611d7091906121aa565b611daf576040517f08c379a0000000000000000000000000000000000000000000000000000000008152600401611da690612a23565b60405180910390fd5b600061271060fa83611dc19190612c5c565b611dcb9190612c2b565b905060008183611ddb9190612cb6565b9050600160009054906101000a900473ffffffffffffffffffffffffffffffffffffffff1673ffffffffffffffffffffffffffffffffffffffff1663a9059cbb85836040518363ffffffff1660e01b8152600401611e3a929190612814565b602060405180830381600087803b158015611e5457600080fd5b505af1158015611e68573d6000803e3d6000fd5b505050506040513d601f19601f82011682018060405250810190611e8c91906121aa565b611ecb576040517f08c379a0000000000000000000000000000000000000000000000000000000008152600401611ec290612aa3565b60405180910390fd5b600160009054906101000a900473ffffffffffffffffffffffffffffffffffffffff1673ffffffffffffffffffffffffffffffffffffffff1663a9059cbb600260009054906101000a900473ffffffffffffffffffffffffffffffffffffffff16846040518363ffffffff1660e01b8152600401611f4a92919061289d565b602060405180830381600087803b158015611f6457600080fd5b505af1158015611f78573d6000803e3d6000fd5b505050506040513d601f19601f82011682018060405250810190611f9c91906121aa565b611fdb576040517f08c379a0000000000000000000000000000000000000000000000000000000008152600401611fd290612b63565b60405180910390fd5b5050505050565b828054611fee90612e04565b90600052602060002090601f0160209004810192826120105760008555612057565b82601f1061202957805160ff1916838001178555612057565b82800160010185558215612057579182015b8281111561205657825182559160200191906001019061203b565b5b50905061206491906120a8565b5090565b50805461207490612e04565b6000825580601f1061208657506120a5565b601f0160209004906000526020600020908101906120a491906120a8565b5b50565b5b808211156120c15760008160009055506001016120a9565b5090565b60006120d86120d384612bd4565b612ba3565b9050828152602081018484840111156120f057600080fd5b6120fb848285612dc2565b509392505050565b60008135905061211281612f03565b92915050565b60008151905061212781612f1a565b92915050565b600082601f83011261213e57600080fd5b813561214e8482602086016120c5565b91505092915050565b60008135905061216681612f31565b92915050565b60008151905061217b81612f31565b92915050565b60006020828403121561219357600080fd5b60006121a184828501612103565b91505092915050565b6000602082840312156121bc57600080fd5b60006121ca84828501612118565b91505092915050565b6000602082840312156121e557600080fd5b600082013567ffffffffffffffff8111156121ff57600080fd5b61220b8482850161212d565b91505092915050565b6000806040838503121561222757600080fd5b600083013567ffffffffffffffff81111561224157600080fd5b61224d8582860161212d565b925050602061225e85828601612157565b9150509250929050565b60006020828403121561227a57600080fd5b60006122888482850161216c565b91505092915050565b61229a81612d44565b82525050565b6122a981612cfc565b82525050565b6122b881612cea565b82525050565b6122c781612d0e565b82525050565b6122d681612d56565b82525050565b6122e581612d7a565b82525050565b60006122f682612c04565b6123008185612c0f565b9350612310818560208601612dd1565b61231981612ef2565b840191505092915050565b600061232f82612c04565b6123398185612c20565b9350612349818560208601612dd1565b80840191505092915050565b6000612362601c83612c0f565b91507f4d656d6265727368697020494420616c726561647920657869737473000000006000830152602082019050919050565b60006123a2603683612c0f565b91507f4f6e6c7920746865206d656d626572736869702063726561746f722063616e2060008301527f64656c6574652074686973206d656d62657273686970000000000000000000006020830152604082019050919050565b6000612408602683612c0f565b91507f4f776e61626c653a206e6577206f776e657220697320746865207a65726f206160008301527f64647265737300000000000000000000000000000000000000000000000000006020830152604082019050919050565b600061246e600f83612c0f565b91507f5472616e73666572206661696c656400000000000000000000000000000000006000830152602082019050919050565b60006124ae601583612c0f565b91507f4e6f7420612072656769737465726564207573657200000000000000000000006000830152602082019050919050565b60006124ee603083612c0f565b91507f4f6e6c792074686520636f6e74656e742063726561746f722063616e2064656c60008301527f657465207468697320636f6e74656e74000000000000000000000000000000006020830152604082019050919050565b6000612554601983612c0f565b91507f436f6e74656e7420494420616c726561647920657869737473000000000000006000830152602082019050919050565b6000612594601c83612c0f565b91507f5472616e7366657220746f20726563697069656e74206661696c6564000000006000830152602082019050919050565b60006125d4601683612c0f565b91507f436f6e74656e7420646f6573206e6f74206578697374000000000000000000006000830152602082019050919050565b6000612614601983612c0f565b91507f4e6f7420656e6f756768205553444320616c6c6f77616e6365000000000000006000830152602082019050919050565b6000612654602d83612c0f565b91507f4f6e6c792074686520636f6e74656e742063726561746f722063616e2075706460008301527f61746520746865207072696365000000000000000000000000000000000000006020830152604082019050919050565b60006126ba602083612c0f565b91507f4f776e61626c653a2063616c6c6572206973206e6f7420746865206f776e65726000830152602082019050919050565b60006126fa601883612c0f565b91507f4e6f7420656e6f75676820555344432070726f766964656400000000000000006000830152602082019050919050565b600061273a601883612c0f565b91507f5472616e7366657220746f207661756c74206661696c656400000000000000006000830152602082019050919050565b600061277a603083612c0f565b91507f4f6e6c7920746865206d656d626572736869702063726561746f722063616e2060008301527f75706461746520746865207072696365000000000000000000000000000000006020830152604082019050919050565b6127dc81612d3a565b82525050565b60006127ee8284612324565b915081905092915050565b600060208201905061280e60008301846122af565b92915050565b60006040820190506128296000830185612291565b61283660208301846127d3565b9392505050565b600060408201905061285260008301856122af565b61285f60208301846122af565b9392505050565b600060608201905061287b60008301866122af565b61288860208301856122af565b61289560408301846127d3565b949350505050565b60006040820190506128b260008301856122af565b6128bf60208301846127d3565b9392505050565b60006020820190506128db60008301846122be565b92915050565b60006020820190506128f660008301846122cd565b92915050565b600060208201905061291160008301846122dc565b92915050565b6000604082019050818103600083015261293181856122eb565b905061294060208301846122af565b9392505050565b6000606082019050818103600083015261296181866122eb565b905061297060208301856122af565b61297d60408301846127d3565b949350505050565b6000606082019050818103600083015261299f81866122eb565b90506129ae60208301856127d3565b6129bb60408301846122a0565b949350505050565b600060208201905081810360008301526129dc81612355565b9050919050565b600060208201905081810360008301526129fc81612395565b9050919050565b60006020820190508181036000830152612a1c816123fb565b9050919050565b60006020820190508181036000830152612a3c81612461565b9050919050565b60006020820190508181036000830152612a5c816124a1565b9050919050565b60006020820190508181036000830152612a7c816124e1565b9050919050565b60006020820190508181036000830152612a9c81612547565b9050919050565b60006020820190508181036000830152612abc81612587565b9050919050565b60006020820190508181036000830152612adc816125c7565b9050919050565b60006020820190508181036000830152612afc81612607565b9050919050565b60006020820190508181036000830152612b1c81612647565b9050919050565b60006020820190508181036000830152612b3c816126ad565b9050919050565b60006020820190508181036000830152612b5c816126ed565b9050919050565b60006020820190508181036000830152612b7c8161272d565b9050919050565b60006020820190508181036000830152612b9c8161276d565b9050919050565b6000604051905081810181811067ffffffffffffffff82111715612bca57612bc9612ec3565b5b8060405250919050565b600067ffffffffffffffff821115612bef57612bee612ec3565b5b601f19601f8301169050602081019050919050565b600081519050919050565b600082825260208201905092915050565b600081905092915050565b6000612c3682612d3a565b9150612c4183612d3a565b925082612c5157612c50612e65565b5b828204905092915050565b6000612c6782612d3a565b9150612c7283612d3a565b9250817fffffffffffffffffffffffffffffffffffffffffffffffffffffffffffffffff0483118215151615612cab57612caa612e36565b5b828202905092915050565b6000612cc182612d3a565b9150612ccc83612d3a565b925082821015612cdf57612cde612e36565b5b828203905092915050565b6000612cf582612d1a565b9050919050565b6000612d0782612d1a565b9050919050565b60008115159050919050565b600073ffffffffffffffffffffffffffffffffffffffff82169050919050565b6000819050919050565b6000612d4f82612d9e565b9050919050565b6000612d6182612d68565b9050919050565b6000612d7382612d1a565b9050919050565b6000612d8582612d8c565b9050919050565b6000612d9782612d1a565b9050919050565b6000612da982612db0565b9050919050565b6000612dbb82612d1a565b9050919050565b82818337600083830152505050565b60005b83811015612def578082015181840152602081019050612dd4565b83811115612dfe576000848401525b50505050565b60006002820490506001821680612e1c57607f821691505b60208210811415612e3057612e2f612e94565b5b50919050565b7f4e487b7100000000000000000000000000000000000000000000000000000000600052601160045260246000fd5b7f4e487b7100000000000000000000000000000000000000000000000000000000600052601260045260246000fd5b7f4e487b7100000000000000000000000000000000000000000000000000000000600052602260045260246000fd5b7f4e487b7100000000000000000000000000000000000000000000000000000000600052604160045260246000fd5b6000601f19601f8301169050919050565b612f0c81612cea565b8114612f1757600080fd5b50565b612f2381612d0e565b8114612f2e57600080fd5b50565b612f3a81612d3a565b8114612f4557600080fd5b5056fea26469706673582212208b7e6c16e727600a87de9376b89cdc36a2acbae9a114a6246b9f37e5d424657364736f6c63430008000033",
  "immutableReferences": {},
  "source": "// SPDX-License-Identifier: MIT\n\npragma solidity ^0.8.0;\n\nimport \"@openzeppelin/contracts/access/Ownable.sol\";\nimport \"@openzeppelin/contracts/token/ERC20/IERC20.sol\";\n\ncontract NodusVault is Ownable {\n    IERC20 public usdc;\n\n    constructor(address _usdcAddress) {\n        usdc = IERC20(_usdcAddress);\n    }\n\n    function withdraw(uint _amount) external onlyOwner {\n        require(usdc.transfer(owner(), _amount), \"Withdrawal failed\");\n    }\n}\n\ncontract Nodus is Ownable {\n    IERC20 public usdc;\n    NodusVault public vault;\n\n    struct Content {\n        string id;\n        uint price;\n        address payable creator;\n    }\n\n    struct Membership {\n        string id;\n        uint price;\n        address payable creator;\n    }\n\n    mapping(string => Content) public contents;\n    mapping(string => Membership) public memberships;\n    mapping(address => bool) public registeredUsers;\n\n    uint constant PROCESSING_FEE_PERCENT = 250;\n\n    event PurchaseContent(string contentId, address buyer);\n    event PurchaseMembership(string membershipId, address buyer);\n    event Donation(string contentId, address donor, uint amount);\n\n    modifier onlyRegisteredUser() {\n        require(registeredUsers[msg.sender] == true, \"Not a registered user\");\n        _;\n    }\n\n    constructor(address _usdcAddress, address _vaultAddress) {\n        usdc = IERC20(_usdcAddress);\n        vault = NodusVault(_vaultAddress);\n    }\n\n    function registerUser(address _user) external onlyOwner {\n        registeredUsers[_user] = true;\n    }\n\n    function createContent(\n        string memory _id,\n        uint _price\n    ) public onlyRegisteredUser {\n        require(\n            contents[_id].creator == address(0),\n            \"Content ID already exists\"\n        );\n        contents[_id] = Content(_id, _price, payable(msg.sender));\n    }\n\n    function createMembership(\n        string memory _id,\n        uint _price\n    ) public onlyRegisteredUser {\n        require(\n            memberships[_id].creator == address(0),\n            \"Membership ID already exists\"\n        );\n        memberships[_id] = Membership(_id, _price, payable(msg.sender));\n    }\n\n    function updateContentPrice(\n        string memory _id,\n        uint _newPrice\n    ) public onlyRegisteredUser {\n        require(\n            contents[_id].creator == msg.sender,\n            \"Only the content creator can update the price\"\n        );\n        contents[_id].price = _newPrice;\n    }\n\n    function updateMembershipPrice(\n        string memory _id,\n        uint _newPrice\n    ) public onlyRegisteredUser {\n        require(\n            memberships[_id].creator == msg.sender,\n            \"Only the membership creator can update the price\"\n        );\n        memberships[_id].price = _newPrice;\n    }\n\n    function deleteContent(string memory _id) public onlyRegisteredUser {\n        require(\n            contents[_id].creator == msg.sender,\n            \"Only the content creator can delete this content\"\n        );\n        delete contents[_id];\n    }\n\n    function deleteMembership(string memory _id) public onlyRegisteredUser {\n        require(\n            memberships[_id].creator == msg.sender,\n            \"Only the membership creator can delete this membership\"\n        );\n        delete memberships[_id];\n    }\n\n    function purchaseContent(string memory _id) public onlyRegisteredUser {\n        require(\n            usdc.allowance(msg.sender, address(this)) >= contents[_id].price,\n            \"Not enough USDC allowance\"\n        );\n        _purchaseContent(_id);\n    }\n\n    function purchaseMembership(string memory _id) public onlyRegisteredUser {\n        require(\n            usdc.allowance(msg.sender, address(this)) >= memberships[_id].price,\n            \"Not enough USDC allowance\"\n        );\n        _purchaseMembership(_id);\n    }\n\n    function donateContent(\n        string memory _id,\n        uint _amount\n    ) public onlyRegisteredUser {\n        require(\n            usdc.allowance(msg.sender, address(this)) >= _amount,\n            \"Not enough USDC allowance\"\n        );\n        require(contents[_id].creator != address(0), \"Content does not exist\");\n        _donateContent(_id, _amount);\n    }\n\n    function _purchaseContent(string memory _id) private {\n        _purchase(_id, contents[_id].creator, contents[_id].price);\n        emit PurchaseContent(_id, msg.sender);\n    }\n\n    function _purchaseMembership(string memory _id) private {\n        _purchase(_id, memberships[_id].creator, memberships[_id].price);\n        emit PurchaseMembership(_id, msg.sender);\n    }\n\n    function _purchase(\n        string memory _id,\n        address payable _recipient,\n        uint _price\n    ) private {\n        require(\n            usdc.transferFrom(msg.sender, address(this), _price),\n            \"Not enough USDC provided\"\n        );\n\n        uint fee = (_price * PROCESSING_FEE_PERCENT) / 10000;\n        uint amountToRecipient = _price - fee;\n\n        require(\n            usdc.transfer(_recipient, amountToRecipient),\n            \"Transfer to recipient failed\"\n        );\n        require(usdc.transfer(address(vault), fee), \"Transfer to vault failed\");\n    }\n\n    function _donateContent(string memory _id, uint _amount) private {\n        _donate(_id, contents[_id].creator, _amount);\n        emit Donation(_id, msg.sender, _amount);\n    }\n\n    function _donate(\n        string memory _id,\n        address payable _recipient,\n        uint _amount\n    ) private {\n        require(\n            usdc.transferFrom(msg.sender, address(this), _amount),\n            \"Transfer failed\"\n        );\n\n        uint fee = (_amount * PROCESSING_FEE_PERCENT) / 10000;\n        uint amountToRecipient = _amount - fee;\n\n        require(\n            usdc.transfer(_recipient, amountToRecipient),\n            \"Transfer to recipient failed\"\n        );\n        require(usdc.transfer(address(vault), fee), \"Transfer to vault failed\");\n    }\n}\n",
  "sourcePath": "/Users/Yellaphan/Desktop/dev_projects/nodus_contracts/contracts/nodus.sol",
  "compiler": {
    "name": "solc",
    "version": "0.8.0+commit.c7dfd78e.Emscripten.clang"
  },
  "schemaVersion": "3.4.14",
  "updatedAt": "2023-06-17T14:18:54.467Z",
  "networkType": "ethereum",
  "devdoc": {
    "kind": "dev",
    "methods": {
      "owner()": {
        "details": "Returns the address of the current owner."
      },
      "renounceOwnership()": {
        "details": "Leaves the contract without owner. It will not be possible to call `onlyOwner` functions. Can only be called by the current owner. NOTE: Renouncing ownership will leave the contract without an owner, thereby disabling any functionality that is only available to the owner."
      },
      "transferOwnership(address)": {
        "details": "Transfers ownership of the contract to a new account (`newOwner`). Can only be called by the current owner."
      }
    },
    "version": 1
  },
  "userdoc": {
    "kind": "user",
    "methods": {},
    "version": 1
  }
}