{
  "contractName": "Nodus",
  "abi": [
    {
      "inputs": [
        {
          "internalType": "address",
          "name": "_usdcAddress",
          "type": "address"
        },
        {
          "internalType": "address",
          "name": "_vaultAddress",
          "type": "address"
        }
      ],
      "stateMutability": "nonpayable",
      "type": "constructor"
    },
    {
      "anonymous": false,
      "inputs": [
        {
          "indexed": true,
          "internalType": "address",
          "name": "previousOwner",
          "type": "address"
        },
        {
          "indexed": true,
          "internalType": "address",
          "name": "newOwner",
          "type": "address"
        }
      ],
      "name": "OwnershipTransferred",
      "type": "event"
    },
    {
      "anonymous": false,
      "inputs": [
        {
          "indexed": false,
          "internalType": "string",
          "name": "contentId",
          "type": "string"
        },
        {
          "indexed": false,
          "internalType": "address",
          "name": "buyer",
          "type": "address"
        }
      ],
      "name": "PurchaseContent",
      "type": "event"
    },
    {
      "anonymous": false,
      "inputs": [
        {
          "indexed": false,
          "internalType": "string",
          "name": "membershipId",
          "type": "string"
        },
        {
          "indexed": false,
          "internalType": "address",
          "name": "buyer",
          "type": "address"
        }
      ],
      "name": "PurchaseMembership",
      "type": "event"
    },
    {
      "inputs": [
        {
          "internalType": "string",
          "name": "",
          "type": "string"
        }
      ],
      "name": "contents",
      "outputs": [
        {
          "internalType": "string",
          "name": "id",
          "type": "string"
        },
        {
          "internalType": "uint256",
          "name": "price",
          "type": "uint256"
        },
        {
          "internalType": "address payable",
          "name": "creator",
          "type": "address"
        }
      ],
      "stateMutability": "view",
      "type": "function",
      "constant": true
    },
    {
      "inputs": [
        {
          "internalType": "string",
          "name": "",
          "type": "string"
        }
      ],
      "name": "memberships",
      "outputs": [
        {
          "internalType": "string",
          "name": "id",
          "type": "string"
        },
        {
          "internalType": "uint256",
          "name": "price",
          "type": "uint256"
        },
        {
          "internalType": "address payable",
          "name": "creator",
          "type": "address"
        }
      ],
      "stateMutability": "view",
      "type": "function",
      "constant": true
    },
    {
      "inputs": [],
      "name": "owner",
      "outputs": [
        {
          "internalType": "address",
          "name": "",
          "type": "address"
        }
      ],
      "stateMutability": "view",
      "type": "function",
      "constant": true
    },
    {
      "inputs": [],
      "name": "renounceOwnership",
      "outputs": [],
      "stateMutability": "nonpayable",
      "type": "function"
    },
    {
      "inputs": [
        {
          "internalType": "address",
          "name": "newOwner",
          "type": "address"
        }
      ],
      "name": "transferOwnership",
      "outputs": [],
      "stateMutability": "nonpayable",
      "type": "function"
    },
    {
      "inputs": [],
      "name": "usdc",
      "outputs": [
        {
          "internalType": "contract IERC20",
          "name": "",
          "type": "address"
        }
      ],
      "stateMutability": "view",
      "type": "function",
      "constant": true
    },
    {
      "inputs": [],
      "name": "vault",
      "outputs": [
        {
          "internalType": "contract NodusVault",
          "name": "",
          "type": "address"
        }
      ],
      "stateMutability": "view",
      "type": "function",
      "constant": true
    },
    {
      "inputs": [
        {
          "internalType": "string",
          "name": "_id",
          "type": "string"
        },
        {
          "internalType": "uint256",
          "name": "_price",
          "type": "uint256"
        }
      ],
      "name": "createContent",
      "outputs": [],
      "stateMutability": "nonpayable",
      "type": "function"
    },
    {
      "inputs": [
        {
          "internalType": "string",
          "name": "_id",
          "type": "string"
        },
        {
          "internalType": "uint256",
          "name": "_price",
          "type": "uint256"
        }
      ],
      "name": "createMembership",
      "outputs": [],
      "stateMutability": "nonpayable",
      "type": "function"
    },
    {
      "inputs": [
        {
          "internalType": "string",
          "name": "_id",
          "type": "string"
        }
      ],
      "name": "purchaseContent",
      "outputs": [],
      "stateMutability": "nonpayable",
      "type": "function"
    },
    {
      "inputs": [
        {
          "internalType": "string",
          "name": "_id",
          "type": "string"
        }
      ],
      "name": "purchaseMembership",
      "outputs": [],
      "stateMutability": "nonpayable",
      "type": "function"
    }
  ],
  "bytecode": "0x60806040523480156200001157600080fd5b5060405162001d5838038062001d588339818101604052810190620000379190620001c4565b620000576200004b620000e160201b60201c565b620000e960201b60201c565b81600160006101000a81548173ffffffffffffffffffffffffffffffffffffffff021916908373ffffffffffffffffffffffffffffffffffffffff16021790555080600260006101000a81548173ffffffffffffffffffffffffffffffffffffffff021916908373ffffffffffffffffffffffffffffffffffffffff160217905550505062000253565b600033905090565b60008060009054906101000a900473ffffffffffffffffffffffffffffffffffffffff169050816000806101000a81548173ffffffffffffffffffffffffffffffffffffffff021916908373ffffffffffffffffffffffffffffffffffffffff1602179055508173ffffffffffffffffffffffffffffffffffffffff168173ffffffffffffffffffffffffffffffffffffffff167f8be0079c531659141344cd1fd0a4f28419497f9722a3daafe3b4186f6b6457e060405160405180910390a35050565b600081519050620001be8162000239565b92915050565b60008060408385031215620001d857600080fd5b6000620001e885828601620001ad565b9250506020620001fb85828601620001ad565b9150509250929050565b6000620002128262000219565b9050919050565b600073ffffffffffffffffffffffffffffffffffffffff82169050919050565b620002448162000205565b81146200025057600080fd5b50565b611af580620002636000396000f3fe608060405234801561001057600080fd5b50600436106100a85760003560e01c8063715018a611610071578063715018a61461013b5780638da5cb5b14610145578063a6acce3514610163578063c8d52f1e14610195578063f2fde38b146101c7578063fbfa77cf146101e3576100a8565b8062b40186146100ad57806327b697f0146100c95780633e413bee146100e55780634402070e1461010357806353506a1c1461011f575b600080fd5b6100c760048036038101906100c2919061125c565b610201565b005b6100e360048036038101906100de919061129d565b610689565b005b6100ed61074d565b6040516100fa91906115d6565b60405180910390f35b61011d6004803603810190610118919061125c565b610773565b005b6101396004803603810190610134919061129d565b610bfb565b005b610143610cbf565b005b61014d610cd3565b60405161015a9190611532565b60405180910390f35b61017d6004803603810190610178919061125c565b610cfc565b60405161018c9392919061163c565b60405180910390f35b6101af60048036038101906101aa919061125c565b610de4565b6040516101be9392919061163c565b60405180910390f35b6101e160048036038101906101dc919061120a565b610ecc565b005b6101eb610f50565b6040516101f891906115f1565b60405180910390f35b6000600482604051610213919061151b565b908152602001604051809103902060405180606001604052908160008201805461023c9061197b565b80601f01602080910402602001604051908101604052809291908181526020018280546102689061197b565b80156102b55780601f1061028a576101008083540402835291602001916102b5565b820191906000526020600020905b81548152906001019060200180831161029857829003601f168201915b50505050508152602001600182015481526020016002820160009054906101000a900473ffffffffffffffffffffffffffffffffffffffff1673ffffffffffffffffffffffffffffffffffffffff1673ffffffffffffffffffffffffffffffffffffffff16815250509050600081602001519050600160009054906101000a900473ffffffffffffffffffffffffffffffffffffffff1673ffffffffffffffffffffffffffffffffffffffff166323b872dd3330846040518463ffffffff1660e01b815260040161038893929190611576565b602060405180830381600087803b1580156103a257600080fd5b505af11580156103b6573d6000803e3d6000fd5b505050506040513d601f19601f820116820180604052508101906103da9190611233565b610419576040517f08c379a0000000000000000000000000000000000000000000000000000000008152600401610410906116fa565b60405180910390fd5b600061271060fa8361042b91906117d3565b61043591906117a2565b905060008183610445919061182d565b9050600160009054906101000a900473ffffffffffffffffffffffffffffffffffffffff1673ffffffffffffffffffffffffffffffffffffffff1663a9059cbb8560400151836040518363ffffffff1660e01b81526004016104a892919061154d565b602060405180830381600087803b1580156104c257600080fd5b505af11580156104d6573d6000803e3d6000fd5b505050506040513d601f19601f820116820180604052508101906104fa9190611233565b610539576040517f08c379a0000000000000000000000000000000000000000000000000000000008152600401610530906116ba565b60405180910390fd5b600160009054906101000a900473ffffffffffffffffffffffffffffffffffffffff1673ffffffffffffffffffffffffffffffffffffffff1663a9059cbb600260009054906101000a900473ffffffffffffffffffffffffffffffffffffffff16846040518363ffffffff1660e01b81526004016105b89291906115ad565b602060405180830381600087803b1580156105d257600080fd5b505af11580156105e6573d6000803e3d6000fd5b505050506040513d601f19601f8201168201806040525081019061060a9190611233565b610649576040517f08c379a00000000000000000000000000000000000000000000000000000000081526004016106409061167a565b60405180910390fd5b7f1243b4feb6b0c211363e85d2adc9cbd13c2feea09388080ceea4cd622457d8ab853360405161067a92919061160c565b60405180910390a15050505050565b60405180606001604052808381526020018281526020013373ffffffffffffffffffffffffffffffffffffffff168152506003836040516106ca919061151b565b908152602001604051809103902060008201518160000190805190602001906106f49291906110c0565b506020820151816001015560408201518160020160006101000a81548173ffffffffffffffffffffffffffffffffffffffff021916908373ffffffffffffffffffffffffffffffffffffffff1602179055509050505050565b600160009054906101000a900473ffffffffffffffffffffffffffffffffffffffff1681565b6000600382604051610785919061151b565b90815260200160405180910390206040518060600160405290816000820180546107ae9061197b565b80601f01602080910402602001604051908101604052809291908181526020018280546107da9061197b565b80156108275780601f106107fc57610100808354040283529160200191610827565b820191906000526020600020905b81548152906001019060200180831161080a57829003601f168201915b50505050508152602001600182015481526020016002820160009054906101000a900473ffffffffffffffffffffffffffffffffffffffff1673ffffffffffffffffffffffffffffffffffffffff1673ffffffffffffffffffffffffffffffffffffffff16815250509050600081602001519050600160009054906101000a900473ffffffffffffffffffffffffffffffffffffffff1673ffffffffffffffffffffffffffffffffffffffff166323b872dd3330846040518463ffffffff1660e01b81526004016108fa93929190611576565b602060405180830381600087803b15801561091457600080fd5b505af1158015610928573d6000803e3d6000fd5b505050506040513d601f19601f8201168201806040525081019061094c9190611233565b61098b576040517f08c379a0000000000000000000000000000000000000000000000000000000008152600401610982906116fa565b60405180910390fd5b600061271060fa8361099d91906117d3565b6109a791906117a2565b9050600081836109b7919061182d565b9050600160009054906101000a900473ffffffffffffffffffffffffffffffffffffffff1673ffffffffffffffffffffffffffffffffffffffff1663a9059cbb8560400151836040518363ffffffff1660e01b8152600401610a1a92919061154d565b602060405180830381600087803b158015610a3457600080fd5b505af1158015610a48573d6000803e3d6000fd5b505050506040513d601f19601f82011682018060405250810190610a6c9190611233565b610aab576040517f08c379a0000000000000000000000000000000000000000000000000000000008152600401610aa2906116ba565b60405180910390fd5b600160009054906101000a900473ffffffffffffffffffffffffffffffffffffffff1673ffffffffffffffffffffffffffffffffffffffff1663a9059cbb600260009054906101000a900473ffffffffffffffffffffffffffffffffffffffff16846040518363ffffffff1660e01b8152600401610b2a9291906115ad565b602060405180830381600087803b158015610b4457600080fd5b505af1158015610b58573d6000803e3d6000fd5b505050506040513d601f19601f82011682018060405250810190610b7c9190611233565b610bbb576040517f08c379a0000000000000000000000000000000000000000000000000000000008152600401610bb29061167a565b60405180910390fd5b7f790ef208dab554576fed861523a87372748cca9bb5e0789232ae667cf94debc38533604051610bec92919061160c565b60405180910390a15050505050565b60405180606001604052808381526020018281526020013373ffffffffffffffffffffffffffffffffffffffff16815250600483604051610c3c919061151b565b90815260200160405180910390206000820151816000019080519060200190610c669291906110c0565b506020820151816001015560408201518160020160006101000a81548173ffffffffffffffffffffffffffffffffffffffff021916908373ffffffffffffffffffffffffffffffffffffffff1602179055509050505050565b610cc7610f76565b610cd16000610ff4565b565b60008060009054906101000a900473ffffffffffffffffffffffffffffffffffffffff16905090565b600381805160208101820180518482526020830160208501208183528095505050505050600091509050806000018054610d359061197b565b80601f0160208091040260200160405190810160405280929190818152602001828054610d619061197b565b8015610dae5780601f10610d8357610100808354040283529160200191610dae565b820191906000526020600020905b815481529060010190602001808311610d9157829003601f168201915b5050505050908060010154908060020160009054906101000a900473ffffffffffffffffffffffffffffffffffffffff16905083565b600481805160208101820180518482526020830160208501208183528095505050505050600091509050806000018054610e1d9061197b565b80601f0160208091040260200160405190810160405280929190818152602001828054610e499061197b565b8015610e965780601f10610e6b57610100808354040283529160200191610e96565b820191906000526020600020905b815481529060010190602001808311610e7957829003601f168201915b5050505050908060010154908060020160009054906101000a900473ffffffffffffffffffffffffffffffffffffffff16905083565b610ed4610f76565b600073ffffffffffffffffffffffffffffffffffffffff168173ffffffffffffffffffffffffffffffffffffffff161415610f44576040517f08c379a0000000000000000000000000000000000000000000000000000000008152600401610f3b9061169a565b60405180910390fd5b610f4d81610ff4565b50565b600260009054906101000a900473ffffffffffffffffffffffffffffffffffffffff1681565b610f7e6110b8565b73ffffffffffffffffffffffffffffffffffffffff16610f9c610cd3565b73ffffffffffffffffffffffffffffffffffffffff1614610ff2576040517f08c379a0000000000000000000000000000000000000000000000000000000008152600401610fe9906116da565b60405180910390fd5b565b60008060009054906101000a900473ffffffffffffffffffffffffffffffffffffffff169050816000806101000a81548173ffffffffffffffffffffffffffffffffffffffff021916908373ffffffffffffffffffffffffffffffffffffffff1602179055508173ffffffffffffffffffffffffffffffffffffffff168173ffffffffffffffffffffffffffffffffffffffff167f8be0079c531659141344cd1fd0a4f28419497f9722a3daafe3b4186f6b6457e060405160405180910390a35050565b600033905090565b8280546110cc9061197b565b90600052602060002090601f0160209004810192826110ee5760008555611135565b82601f1061110757805160ff1916838001178555611135565b82800160010185558215611135579182015b82811115611134578251825591602001919060010190611119565b5b5090506111429190611146565b5090565b5b8082111561115f576000816000905550600101611147565b5090565b60006111766111718461174b565b61171a565b90508281526020810184848401111561118e57600080fd5b611199848285611939565b509392505050565b6000813590506111b081611a7a565b92915050565b6000815190506111c581611a91565b92915050565b600082601f8301126111dc57600080fd5b81356111ec848260208601611163565b91505092915050565b60008135905061120481611aa8565b92915050565b60006020828403121561121c57600080fd5b600061122a848285016111a1565b91505092915050565b60006020828403121561124557600080fd5b6000611253848285016111b6565b91505092915050565b60006020828403121561126e57600080fd5b600082013567ffffffffffffffff81111561128857600080fd5b611294848285016111cb565b91505092915050565b600080604083850312156112b057600080fd5b600083013567ffffffffffffffff8111156112ca57600080fd5b6112d6858286016111cb565b92505060206112e7858286016111f5565b9150509250929050565b6112fa816118bb565b82525050565b61130981611873565b82525050565b61131881611861565b82525050565b611327816118cd565b82525050565b611336816118f1565b82525050565b60006113478261177b565b6113518185611786565b9350611361818560208601611948565b61136a81611a69565b840191505092915050565b60006113808261177b565b61138a8185611797565b935061139a818560208601611948565b80840191505092915050565b60006113b3601983611786565b91507f5472616e7366657220746f207661756c74206661696c65642e000000000000006000830152602082019050919050565b60006113f3602683611786565b91507f4f776e61626c653a206e6577206f776e657220697320746865207a65726f206160008301527f64647265737300000000000000000000000000000000000000000000000000006020830152604082019050919050565b6000611459601b83611786565b91507f5472616e7366657220746f2063726561746f72206661696c65642e00000000006000830152602082019050919050565b6000611499602083611786565b91507f4f776e61626c653a2063616c6c6572206973206e6f7420746865206f776e65726000830152602082019050919050565b60006114d9601983611786565b91507f4e6f7420656e6f75676820555344432070726f76696465642e000000000000006000830152602082019050919050565b611515816118b1565b82525050565b60006115278284611375565b915081905092915050565b6000602082019050611547600083018461130f565b92915050565b600060408201905061156260008301856112f1565b61156f602083018461150c565b9392505050565b600060608201905061158b600083018661130f565b611598602083018561130f565b6115a5604083018461150c565b949350505050565b60006040820190506115c2600083018561130f565b6115cf602083018461150c565b9392505050565b60006020820190506115eb600083018461131e565b92915050565b6000602082019050611606600083018461132d565b92915050565b60006040820190508181036000830152611626818561133c565b9050611635602083018461130f565b9392505050565b60006060820190508181036000830152611656818661133c565b9050611665602083018561150c565b6116726040830184611300565b949350505050565b60006020820190508181036000830152611693816113a6565b9050919050565b600060208201905081810360008301526116b3816113e6565b9050919050565b600060208201905081810360008301526116d38161144c565b9050919050565b600060208201905081810360008301526116f38161148c565b9050919050565b60006020820190508181036000830152611713816114cc565b9050919050565b6000604051905081810181811067ffffffffffffffff8211171561174157611740611a3a565b5b8060405250919050565b600067ffffffffffffffff82111561176657611765611a3a565b5b601f19601f8301169050602081019050919050565b600081519050919050565b600082825260208201905092915050565b600081905092915050565b60006117ad826118b1565b91506117b8836118b1565b9250826117c8576117c76119dc565b5b828204905092915050565b60006117de826118b1565b91506117e9836118b1565b9250817fffffffffffffffffffffffffffffffffffffffffffffffffffffffffffffffff0483118215151615611822576118216119ad565b5b828202905092915050565b6000611838826118b1565b9150611843836118b1565b925082821015611856576118556119ad565b5b828203905092915050565b600061186c82611891565b9050919050565b600061187e82611891565b9050919050565b60008115159050919050565b600073ffffffffffffffffffffffffffffffffffffffff82169050919050565b6000819050919050565b60006118c682611915565b9050919050565b60006118d8826118df565b9050919050565b60006118ea82611891565b9050919050565b60006118fc82611903565b9050919050565b600061190e82611891565b9050919050565b600061192082611927565b9050919050565b600061193282611891565b9050919050565b82818337600083830152505050565b60005b8381101561196657808201518184015260208101905061194b565b83811115611975576000848401525b50505050565b6000600282049050600182168061199357607f821691505b602082108114156119a7576119a6611a0b565b5b50919050565b7f4e487b7100000000000000000000000000000000000000000000000000000000600052601160045260246000fd5b7f4e487b7100000000000000000000000000000000000000000000000000000000600052601260045260246000fd5b7f4e487b7100000000000000000000000000000000000000000000000000000000600052602260045260246000fd5b7f4e487b7100000000000000000000000000000000000000000000000000000000600052604160045260246000fd5b6000601f19601f8301169050919050565b611a8381611861565b8114611a8e57600080fd5b50565b611a9a81611885565b8114611aa557600080fd5b50565b611ab1816118b1565b8114611abc57600080fd5b5056fea26469706673582212206ebfe32f79c1eeba762be2fce9d1c30a36abc19dcfcd3e3f579be5e1179b3f0d64736f6c63430008000033",
  "immutableReferences": {},
  "source": "// SPDX-License-Identifier: MIT\n\npragma solidity ^0.8.0;\n\nimport \"@openzeppelin/contracts/access/Ownable.sol\";\nimport \"@openzeppelin/contracts/token/ERC20/IERC20.sol\";\n\ncontract NodusVault is Ownable {\n    IERC20 public usdc;\n\n    constructor(address _usdcAddress) {\n        usdc = IERC20(_usdcAddress);\n    }\n\n    function withdraw(uint _amount) external onlyOwner {\n        require(usdc.transfer(owner(), _amount), \"Withdrawal failed\");\n    }\n}\n\ncontract Nodus is Ownable {\n    IERC20 public usdc;\n    NodusVault public vault;\n\n    struct Content {\n        string id;\n        uint price;\n        address payable creator;\n    }\n\n    struct Membership {\n        string id;\n        uint price;\n        address payable creator;\n    }\n\n    mapping(string => Content) public contents;\n    mapping(string => Membership) public memberships;\n\n    uint constant PROCESSING_FEE_PERCENT = 250; \n\n    event PurchaseContent(string contentId, address buyer);\n    event PurchaseMembership(string membershipId, address buyer);\n\n    constructor(address _usdcAddress, address _vaultAddress) {\n        usdc = IERC20(_usdcAddress);\n        vault = NodusVault(_vaultAddress);\n    }\n\n    function createContent(string memory _id, uint _price) public {\n        contents[_id] = Content(_id, _price, payable(msg.sender));\n    }\n\n    function createMembership(string memory _id, uint _price) public {\n        memberships[_id] = Membership(_id, _price, payable(msg.sender));\n    }\n\n    function purchaseContent(string memory _id) public {\n        Content memory content = contents[_id];\n        uint price = content.price;\n        require(usdc.transferFrom(msg.sender, address(this), price), \"Not enough USDC provided.\");\n\n        uint fee = (price * PROCESSING_FEE_PERCENT) / 10000;\n        uint amountToCreator = price - fee;\n\n        require(usdc.transfer(content.creator, amountToCreator), \"Transfer to creator failed.\");\n        require(usdc.transfer(address(vault), fee), \"Transfer to vault failed.\");\n\n        emit PurchaseContent(_id, msg.sender);\n    }\n\n    function purchaseMembership(string memory _id) public {\n        Membership memory membership = memberships[_id];\n        uint price = membership.price;\n        require(usdc.transferFrom(msg.sender, address(this), price), \"Not enough USDC provided.\");\n\n        uint fee = (price * PROCESSING_FEE_PERCENT) / 10000;\n        uint amountToCreator = price - fee;\n\n        require(usdc.transfer(membership.creator, amountToCreator), \"Transfer to creator failed.\");\n        require(usdc.transfer(address(vault), fee), \"Transfer to vault failed.\");\n\n        emit PurchaseMembership(_id, msg.sender);\n    }\n}\n",
  "sourcePath": "/Users/Yellaphan/Desktop/dev_projects/nodus_contracts/contracts/nodus.sol",
  "compiler": {
    "name": "solc",
    "version": "0.8.0+commit.c7dfd78e.Emscripten.clang"
  },
  "schemaVersion": "3.4.14",
  "updatedAt": "2023-06-14T22:48:49.227Z",
  "networkType": "ethereum",
  "devdoc": {
    "kind": "dev",
    "methods": {
      "owner()": {
        "details": "Returns the address of the current owner."
      },
      "renounceOwnership()": {
        "details": "Leaves the contract without owner. It will not be possible to call `onlyOwner` functions. Can only be called by the current owner. NOTE: Renouncing ownership will leave the contract without an owner, thereby disabling any functionality that is only available to the owner."
      },
      "transferOwnership(address)": {
        "details": "Transfers ownership of the contract to a new account (`newOwner`). Can only be called by the current owner."
      }
    },
    "version": 1
  },
  "userdoc": {
    "kind": "user",
    "methods": {},
    "version": 1
  }
}